:100000000C9462000C948A000C948A000C948A0070
:100010000C948A000C948A000C948A000C948A0038
:100020000C948A000C948A000C948A000C948A0028
:100030000C948A000C948A000C948A000C948A0018
:100040000C9446040C948A000C948A000C948A0048
:100050000C948A000C948A000C948A000C948A00F8
:100060000C9490040C948A000000000024002700E7
:100070002A0000000000250028002B0000000000DE
:1000800023002600290004040404040404040202DA
:100090000202020203030303030301020408102007
:1000A0004080010204081020010204081020000012
:1000B0000008000201000003040700000000000027
:1000C0000000AF0511241FBECFEFD8E0DEBFCDBFCB
:1000D00011E0A0E0B1E0E8EEFDE002C005900D9275
:1000E000A436B107D9F722E0A4E6B1E001C01D9221
:1000F000A034B207E1F710E0C2E6D0E004C02197D7
:10010000FE010E94EC06C136D107C9F70E94D00556
:100110000C94F2060C940000833081F028F48130B6
:1001200099F08230A9F008958730A9F08830C9F09D
:100130008430B1F4809180008F7D03C08091800075
:100140008F7780938000089584B58F7784BD08955C
:1001500084B58F7DFBCF8091B0008F778093B00006
:1001600008958091B0008F7DF9CFCF93DF93282F32
:1001700030E0F901E255FF4F8491F901E656FF4F57
:10018000D491F901EA57FF4FC491CC23A1F081111A
:100190000E948C00EC2FF0E0EE0FFF1FE458FF4FA1
:1001A000A591B491EC91ED2381E090E009F480E019
:1001B000DF91CF91089580E090E0FACF1F93CF9325
:1001C000DF93282F30E0F901E255FF4F8491F901C8
:1001D000E656FF4FD491F901EA57FF4FC491CC2363
:1001E000A9F0162F81110E948C00EC2FF0E0EE0F89
:1001F000FF1FEE58FF4FA591B4918FB7F894EC9183
:10020000111108C0D095DE23DC938FBFDF91CF9111
:100210001F910895DE2BF8CFCF93DF9390E0FC0180
:10022000E656FF4F24918A579F4FFC018491882303
:10023000D1F090E0880F991FFC01E859FF4FA5917C
:10024000B491FC01EE58FF4FC591D491623071F426
:100250009FB7F8943C91822F809583238C93E881FB
:100260002E2B28839FBFDF91CF9108958FB7F894ED
:10027000EC912E2B2C938FBFF6CF3FB7F894809143
:10028000230290912402A0912502B091260226B566
:10029000A89B05C02F3F19F00196A11DB11D3FBFBE
:1002A000BA2FA92F982F8827BC01CD01620F711D8D
:1002B000811D911D42E0660F771F881F991F4A9587
:1002C000D1F708958F929F92AF92BF92CF92DF9213
:1002D000EF92FF924B015C010E943D016B017C019A
:1002E0000E943D016C197D098E099F09683E73408B
:1002F00081059105A8F321E0821A9108A108B108AF
:1003000088EEC80E83E0D81EE11CF11C8114910414
:10031000A104B10429F7FF90EF90DF90CF90BF9038
:10032000AF909F908F90089508950895AF92BF92D7
:10033000CF92DF92EF92FF920F931F93CF93DF93B1
:100340006C017B018B01040F151FEB015E01AE18E0
:10035000BF08C017D10759F06991D601ED91FC9102
:100360000190F081E02DC6010995892B79F7C5012F
:10037000DF91CF911F910F91FF90EF90DF90CF9081
:10038000BF90AF90089508952091A501260F3327BF
:10039000331F21323105ECF42091EE01FC0190E095
:1003A00080E0243069F082E00895A091A5012191B8
:1003B000AC014B575E4FA40FB52FB11D2C93019686
:1003C000861798F38091A501680F6093A50180E0DE
:1003D000089581E008951092EE0181E08093ED018F
:1003E0001092C80161E082E10E94DE0061E083E1D9
:1003F0000E94DE00E9EBF0E080818E7F80838081C7
:100400008D7F808388E48093B80085E48093BC006E
:100410000895CF93DF9391E0909384018823B9F0FE
:10042000C091B800D091BA008091BC008A7B8093C3
:10043000BC0060E082E10E94DE0060E083E10E9497
:10044000DE000E94EB01D093BA00C093B800DF91A8
:10045000CF9108950895E0911D0280911C02E81744
:1004600030F4F0E0EC59FE4F808190E008958FEF7A
:100470009FEF089590911D0280911C022FEF3FEF96
:10048000981748F4E92FF0E0EC59FE4F208130E056
:100490009F5F90931D02C901089580911C02909165
:1004A0001D02891B990B0895CF92DF92EF92FF9264
:1004B0000F931F93CF93DF937C01CB018A0120918F
:1004C000F401222389F0EB016B01C40ED51ECC157B
:1004D000DD0569F06991D701ED91FC910190F08102
:1004E000E02DC7010995F3CF642F0E94C401C80114
:1004F000DF91CF911F910F91FF90EF90DF90CF9000
:100500000895CF93DF931F92CDB7DEB76983209113
:10051000F4012223F9F020911A02203258F021E050
:1005200030E0FC013383228390E080E00F90DF9184
:10053000CF91089580911B02E82FF0E0EB50FE4F21
:10054000998190838F5F80931B0280931A0281E0D0
:1005500090E0ECCF61E0CE0101960E94C401F7CF9C
:10056000CF92DF92EF92FF920F931F93CF93DF937F
:10057000FC01C48121E02093F401C0931502109284
:100580001B0210921A028485682B87E292E00E9477
:100590008102D0911A02D13208F092C00E943D012E
:1005A0006B017C018091EE01811165C082E0809336
:1005B000EE0181E08093ED018FEF8093EC011092CA
:1005C000EB01D093EA01A5EFB1E0EAECF1E080E0C5
:1005D000D81385C01092C9018091C901CC0FC82BD6
:1005E000C093C9018091C801813009F07CC010928C
:1005F000C8010E943D016B017C018091C90180937B
:10060000BB008091F0019091F101A091F201B091B5
:10061000F301892B8A2B8B2B99F00E943D010091CD
:10062000F0011091F1012091F2013091F3016C1968
:100630007D098E099F090617170728073907E0F17A
:100640008091BC0083FDD9CF85EC8093BC000E94D3
:100650003D016B017C018091EE01823009F445C0BF
:100660008091EC018F3F61F18091EC01803241F18A
:100670008091EC0125C08091F0019091F101A09151
:10068000F201B091F301892B8A2B8B2B09F48ACFCD
:100690000E943D010091F0011091F1012091F201C1
:1006A0003091F3016C197D098E099F090617170710
:1006B0002807390708F076CF8091EF010E940902E0
:1006C00010921B0210921A021092F401DF91CF9146
:1006D0001F910F91FF90EF90DF90CF9008959D9123
:1006E00091938F5F75CF85EEB0CF8091F00190919F
:1006F000F101A091F201B091F301892B8A2B8B2B90
:1007000009F4A9CF0E943D010091F0011091F1017F
:100710002091F2013091F3016C197D098E099F0936
:10072000061717072807390708F095CFC5CF90E0BF
:1007300080E00895FC0101900020E9F73197AF01B6
:10074000481B590BBC0183E392E00C9496010F9374
:100750001F93CF938C01C62F0E94B0026C2F646050
:10076000C8010E94B0026C2F6B7FC8010E94B002CA
:1007700083EC90E00197F1F7CF911F910F910895CD
:100780000F931F93CF93DF938C01D62FC42F607FDD
:10079000642B0E94A70380E1D89FB00111246C2B29
:1007A000C801DF91CF911F910F910C94A703CF93B4
:1007B000DF93CDB7DEB728970FB6F894DEBF0FBE34
:1007C000CDBF98E0E0E0F1E0DE01119601900D92DE
:1007D0009A95E1F790913B02981708F48FEF90E01B
:1007E000880F991F21E030E02C0F3D1F820F931FCF
:1007F000FC016081606840E083E392E028960FB6D8
:10080000F894DEBF0FBECDBFDF91CF910C94C00333
:1008100041E00E94C00381E090E0089585ED80935F
:10082000BC008091F0019091F101A091F201B09192
:10083000F3010796A11DB11D23E0B695A7959795E5
:1008400087952A95D1F72091BC0024FD03C0109212
:10085000EE0108954091F0015091F1016091F20193
:100860007091F301452B462B472B69F30097A105A7
:10087000B10541F02AE22A95F1F700C00197A109DC
:10088000B109E1CF8091EF010C9409021F920F9200
:100890000FB60F9211242F933F938F939F93AF9393
:1008A000BF9380911F0290912002A0912102B091EC
:1008B000220230911E0223E0230F2D3758F50196B6
:1008C000A11DB11D20931E0280931F029093200250
:1008D000A0932102B09322028091230290912402DE
:1008E000A0912502B09126020196A11DB11D809311
:1008F000230290932402A0932502B0932602BF9175
:10090000AF919F918F913F912F910F900FBE0F90BC
:100910001F90189526E8230F0296A11DB11DD2CF76
:100920001F920F920FB60F9211242F933F934F9364
:100930005F936F937F938F939F93AF93BF93EF9347
:10094000FF938091B900887F803609F44AC0F0F5A2
:10095000883209F4A7C018F5803109F49BC0B8F4B7
:10096000882309F4F9C0883009F494C0FF91EF910D
:10097000BF91AF919F918F917F916F915F914F91B7
:100980003F912F910F900FBE0F901F9018958831B7
:1009900009F488C0803251F78093EC0114C0803490
:1009A00009F49DC040F48033B9F38833F9F680939D
:1009B000EC0185ECB0C0803509F485C0883509F4B8
:1009C00096C0883499F60E940E04D0CF883909F475
:1009D0008CC038F5883729F050F4883611F080370C
:1009E00029F683E08093EE011092C70157C0883842
:1009F00009F47BC0803919F0803809F0B7CF8091B5
:100A0000C701803208F071C0E091C70181E08E0F0C
:100A10008093C7018091BB00F0E0E955FE4F8083D1
:100A20003DC0803B39F0E0F4803A09F479C0883A5F
:100A300009F09CCF84E08093EE011092A601109201
:100A4000A501E0911802F091190209958091A50184
:100A500081110FC081E08093A5011092850109C02A
:100A6000803C09F4A6CF883C09F4A3CF883B09F069
:100A70007DCFE091A60181E08E0F8093A601F0E08A
:100A8000EB57FE4F80818093BB009091A60180912F
:100A9000A50129C08091C9018093BB0085EC80939A
:100AA000BC0064CF9091EB018091EA01981758F552
:100AB000E091EB0181E08E0F8093EB01F0E0E653D3
:100AC000FE4F8081E9CFE091EB0181E08E0F8093B2
:100AD000EB018091BB00F0E0E653FE4F80839091E4
:100AE000EB018091EA019817C8F285E8D8CFE09130
:100AF000EB0181E08E0F8093EB018091BB00F0E071
:100B0000E653FE4F80838091ED0181115CCF81E03F
:100B10008093C80184EA8093BC001092EE0126CF36
:100B200085EC8093BC001092EE018091C701803269
:100B300030F4E091C701F0E0E955FE4F108260917A
:100B4000C70170E0E0911602F091170287EA91E088
:100B500009951092C7010ACF1092EC0134CFE7E259
:100B6000F2E01382128288EE93E0A0E0B0E084838A
:100B70009583A683B7838CE091E091838083E3E340
:100B8000F2E0138212828EE191E0918380831186DC
:100B900087E2848380E1828782E0838714860895D8
:100BA000789484B5826084BD84B5816084BD85B548
:100BB000826085BD85B5816085BD80916E00816054
:100BC00080936E00109281008091810082608093FA
:100BD00081008091810081608093810080918000FC
:100BE0008160809380008091B10084608093B10027
:100BF0008091B00081608093B00080917A00846021
:100C000080937A0080917A00826080937A0080914C
:100C10007A00816080937A0080917A008068809366
:100C20007A001092C10062E082E00E940C0162E052
:100C300083E00E940C0161E087E00E940C0160E00B
:100C400087E00E94DE0010921D0210921C0210929A
:100C50001B0210921A020E94EB0184E991E090932A
:100C600019028093180285E991E09093170280930E
:100C700016021092380280913E02823018F098E0FD
:100C80009093380280933B0262E370E080E090E052
:100C90000E94620160913F0283E392E00E94B002F1
:100CA00068EE73E080E090E00E94620160E383E31D
:100CB00092E00E94A703CBE4D6E4CE010197F1F7BE
:100CC00060E383E392E00E94A7032197F1F760E3DA
:100CD00083E392E00E94A70383E592E00197F1F796
:100CE00060E283E392E00E94A703609138026062B1
:100CF00040E083E392E00E94C00384E080933902E5
:100D000040E06CE083E392E00E94C00340E061E0D9
:100D100083E392E00E94C0038BE39FE10197F1F728
:100D200080913C02882319F080E00E94D70382E082
:100D300080933A0240E066E083E392E00E94C003C1
:100D400040E062E083E392E00E94C0038BE39FE116
:100D50000197F1F788E080933F0260E083E392E03F
:100D60000E94B00280E00E94D70386E291E00E94D8
:100D70009A03C0E0D0E082E00E94B5008C0183E0DD
:100D80000E94B500012BB1F061E087E00E94DE0017
:100D900081E00E94D70382E391E00E949A0364EF0E
:100DA00071E080E090E00E946201209721F30E94B0
:100DB0000000E1CF892B51F460E087E00E94DE0063
:100DC00081E00E94D70384E491E0E7CF81E00E94B4
:100DD000D70388E591E0E1CFEE0FFF1F0590F49176
:080DE000E02D0994F894FFCF07
:100DE800000040001400540000000000810254027A
:100DF80097032A024D023A022B0200000000080461
:100E080096019703C30150756D7020537461747512
:100E180073003C353025207C2050554D50204F4ED6
:100E28002020200031303025207C2050554D502086
:100E38004F4646202020200041707072782E2035C1
:040E48003025000051
:00000001FF
